{
  "contractName": "CrowdFunding",
  "abi": [
    {
      "inputs": [
        {
          "internalType": "uint256",
          "name": "_goal",
          "type": "uint256"
        },
        {
          "internalType": "uint256",
          "name": "_deadline",
          "type": "uint256"
        }
      ],
      "stateMutability": "nonpayable",
      "type": "constructor"
    },
    {
      "anonymous": false,
      "inputs": [
        {
          "indexed": false,
          "internalType": "address",
          "name": "_address",
          "type": "address"
        },
        {
          "indexed": false,
          "internalType": "uint256",
          "name": "amount",
          "type": "uint256"
        }
      ],
      "name": "Contribuite",
      "type": "event"
    },
    {
      "anonymous": false,
      "inputs": [
        {
          "indexed": false,
          "internalType": "address",
          "name": "_address",
          "type": "address"
        },
        {
          "indexed": false,
          "internalType": "uint256",
          "name": "_amount",
          "type": "uint256"
        }
      ],
      "name": "GetRefunds",
      "type": "event"
    },
    {
      "anonymous": false,
      "inputs": [
        {
          "indexed": false,
          "internalType": "uint256",
          "name": "oldGoal",
          "type": "uint256"
        },
        {
          "indexed": false,
          "internalType": "uint256",
          "name": "newGoal",
          "type": "uint256"
        }
      ],
      "name": "GoalChanged",
      "type": "event"
    },
    {
      "anonymous": false,
      "inputs": [
        {
          "indexed": false,
          "internalType": "uint256",
          "name": "_deadline",
          "type": "uint256"
        },
        {
          "indexed": false,
          "internalType": "uint256",
          "name": "_goal",
          "type": "uint256"
        }
      ],
      "name": "StartContract",
      "type": "event"
    },
    {
      "anonymous": false,
      "inputs": [
        {
          "indexed": false,
          "internalType": "uint256",
          "name": "newMinimumContribution",
          "type": "uint256"
        },
        {
          "indexed": false,
          "internalType": "uint256",
          "name": "newGoal",
          "type": "uint256"
        },
        {
          "indexed": false,
          "internalType": "uint256",
          "name": "newDeadLine",
          "type": "uint256"
        }
      ],
      "name": "startedNewCrowdFund",
      "type": "event"
    },
    {
      "inputs": [],
      "name": "admin",
      "outputs": [
        {
          "internalType": "address",
          "name": "",
          "type": "address"
        }
      ],
      "stateMutability": "view",
      "type": "function",
      "constant": true
    },
    {
      "inputs": [
        {
          "internalType": "address",
          "name": "",
          "type": "address"
        }
      ],
      "name": "contributors",
      "outputs": [
        {
          "internalType": "uint256",
          "name": "",
          "type": "uint256"
        }
      ],
      "stateMutability": "view",
      "type": "function",
      "constant": true
    },
    {
      "inputs": [],
      "name": "deadline",
      "outputs": [
        {
          "internalType": "uint256",
          "name": "",
          "type": "uint256"
        }
      ],
      "stateMutability": "view",
      "type": "function",
      "constant": true
    },
    {
      "inputs": [],
      "name": "goal",
      "outputs": [
        {
          "internalType": "uint256",
          "name": "",
          "type": "uint256"
        }
      ],
      "stateMutability": "view",
      "type": "function",
      "constant": true
    },
    {
      "inputs": [],
      "name": "minimumContribution",
      "outputs": [
        {
          "internalType": "uint256",
          "name": "",
          "type": "uint256"
        }
      ],
      "stateMutability": "view",
      "type": "function",
      "constant": true
    },
    {
      "inputs": [],
      "name": "noOfContributors",
      "outputs": [
        {
          "internalType": "uint256",
          "name": "",
          "type": "uint256"
        }
      ],
      "stateMutability": "view",
      "type": "function",
      "constant": true
    },
    {
      "inputs": [],
      "name": "raisedAmount",
      "outputs": [
        {
          "internalType": "uint256",
          "name": "",
          "type": "uint256"
        }
      ],
      "stateMutability": "view",
      "type": "function",
      "constant": true
    },
    {
      "stateMutability": "payable",
      "type": "receive",
      "payable": true
    },
    {
      "inputs": [],
      "name": "contribuite",
      "outputs": [],
      "stateMutability": "payable",
      "type": "function",
      "payable": true
    },
    {
      "inputs": [],
      "name": "getContractBalance",
      "outputs": [
        {
          "internalType": "uint256",
          "name": "",
          "type": "uint256"
        }
      ],
      "stateMutability": "view",
      "type": "function",
      "constant": true
    },
    {
      "inputs": [],
      "name": "getRefunds",
      "outputs": [],
      "stateMutability": "nonpayable",
      "type": "function"
    },
    {
      "inputs": [
        {
          "internalType": "uint256",
          "name": "newGoal",
          "type": "uint256"
        }
      ],
      "name": "changeGoal",
      "outputs": [],
      "stateMutability": "nonpayable",
      "type": "function"
    },
    {
      "inputs": [],
      "name": "StateDeadline",
      "outputs": [
        {
          "internalType": "string",
          "name": "",
          "type": "string"
        }
      ],
      "stateMutability": "view",
      "type": "function",
      "constant": true
    },
    {
      "inputs": [
        {
          "internalType": "uint256",
          "name": "newMinimumContribution",
          "type": "uint256"
        },
        {
          "internalType": "uint256",
          "name": "newGoal",
          "type": "uint256"
        },
        {
          "internalType": "uint256",
          "name": "newDeadline",
          "type": "uint256"
        }
      ],
      "name": "StartNewCrowFunding",
      "outputs": [],
      "stateMutability": "nonpayable",
      "type": "function"
    }
  ],
  "bytecode": "0x608060405234801561001057600080fd5b50604051610aff380380610aff83398101604081905261002f916100a3565b600582905561003e81426100c6565b6004819055606460035560018054600160a060020a031916331790556005546040517fb1a3bbdde6d6aa61d347d67bc14ca6d68b24d3670bb0d27b7d3377b455fbeb029261009492908252602082015260400190565b60405180910390a15050610103565b600080604083850312156100b5578182fd5b505080516020909101519092909150565b600082198211156100fe577f4e487b710000000000000000000000000000000000000000000000000000000081526011600452602481fd5b500190565b6109ed806101126000396000f3fe6080604052600436106100e3576000357c01000000000000000000000000000000000000000000000000000000009004806380135ae71161009c578063c59ee1dc11610076578063c59ee1dc146101f8578063c5af6f341461020e578063e30be27714610230578063f851a4401461023857600080fd5b806380135ae7146101ad578063937e09b1146101c2578063add84df3146101d857600080fd5b80631f6d4942146100f757806329dcb0cf14610137578063401938831461014d5780634e260f6f14610163578063697947a8146101795780636f9fb98a1461019957600080fd5b366100f2576100f061028a565b005b600080fd5b34801561010357600080fd5b50610124610112366004610810565b60006020819052908152604090205481565b6040519081526020015b60405180910390f35b34801561014357600080fd5b5061012460045481565b34801561015957600080fd5b5061012460055481565b34801561016f57600080fd5b5061012460025481565b34801561018557600080fd5b506100f0610194366004610863565b6103d9565b3480156101a557600080fd5b503031610124565b3480156101b957600080fd5b506100f061053d565b3480156101ce57600080fd5b5061012460035481565b3480156101e457600080fd5b506100f06101f336600461084b565b6106c4565b34801561020457600080fd5b5061012460065481565b34801561021a57600080fd5b50610223610794565b60405161012e919061088e565b6100f061028a565b34801561024457600080fd5b506001546102659073ffffffffffffffffffffffffffffffffffffffff1681565b60405173ffffffffffffffffffffffffffffffffffffffff909116815260200161012e565b60045442106102e35760405160e560020a62461bcd02815260206004820152601360248201527f646561646c696e6520686173207061737365640000000000000000000000000060448201526064015b60405180910390fd5b6003543410156103385760405160e560020a62461bcd02815260206004820152601760248201527f636f6e747269627574696f6e20697320746f6f206c6f7700000000000000000060448201526064016102da565b33600090815260208190526040902054610362576002805490600061035c8361096d565b91905055505b336000908152602081905260408120805434929061038190849061093e565b92505081905550346006600082825461039a919061093e565b9091555050604080513381523460208201527f8de91df77116ec09cd1bd133df973dede3e7538d0674440f64b43b989f238396910160405180910390a1565b60015473ffffffffffffffffffffffffffffffffffffffff1633146104135760405160e560020a62461bcd0281526004016102da906108e1565b60045442116104675760405160e560020a62461bcd02815260206004820152601660248201527f43726f7766756e64696e672069732072756e6e696e670000000000000000000060448201526064016102da565b600254156104e05760405160e560020a62461bcd02815260206004820152603a60248201527f546865726520617265207374696c6c2070656f706c652077686f20686176652060448201527f6e6f742077697468647261776e2074686569722066756e64732e00000000000060648201526084016102da565b600383905560058290556104f4814261093e565b60045560408051848152602081018490529081018290527f42ce7fdcb47353eece16131a0674c77f5a3bab981a0ec0d1a528697c732978929060600160405180910390a1505050565b600454421180156105515750600554600654105b6105a05760405160e560020a62461bcd02815260206004820152601d60248201527f54686520646561646c696e65206973206e6f74206f766572207965742e00000060448201526064016102da565b336000908152602081905260409020546105ff5760405160e560020a62461bcd02815260206004820152601a60248201527f54686572652077657265206e6f20636f6e7472696275746f727300000000000060448201526064016102da565b336000818152602081905260408082205490519091839183156108fc0291849190818181858888f1935050505015801561063d573d6000803e3d6000fd5b503360009081526020819052604081205560025461065d90600190610956565b60025560065461066e908290610956565b6006556040805173ffffffffffffffffffffffffffffffffffffffff84168152602081018390527f83aa1a8673e3cd04448bab0c3eefbd97b9d4029f239ec45be5ee6dce3e498cfa910160405180910390a15050565b60015473ffffffffffffffffffffffffffffffffffffffff1633146106fe5760405160e560020a62461bcd0281526004016102da906108e1565b6005548114156107535760405160e560020a62461bcd02815260206004820152601e60248201527f506c6561736520656e746572206120646966666572656e742076616c7565000060448201526064016102da565b600581905560408051828152602081018390527ff5efb478174270b637242196bb4e6c43a5479339379b4ca591100ab338fdf426910160405180910390a150565b60606004544211156107d8575060408051808201909152601681527f43726f776446756e64696e672046696e69736865642100000000000000000000602082015290565b5060408051808201909152601781527f43726f776446756e64696e672069732052756e6e696e67000000000000000000602082015290565b600060208284031215610821578081fd5b813573ffffffffffffffffffffffffffffffffffffffff81168114610844578182fd5b9392505050565b60006020828403121561085c578081fd5b5035919050565b600080600060608486031215610877578182fd5b505081359360208301359350604090920135919050565b6000602080835283518082850152825b818110156108ba5785810183015185820160400152820161089e565b818111156108cb5783604083870101525b50601f01601f1916929092016040019392505050565b60208082526021908201527f4f6e6c792061646d696e2063616e2063616c6c20746869732066756e6374696f60408201527f6e00000000000000000000000000000000000000000000000000000000000000606082015260800190565b6000821982111561095157610951610988565b500190565b60008282101561096857610968610988565b500390565b600060001982141561098157610981610988565b5060010190565b7f4e487b7100000000000000000000000000000000000000000000000000000000600052601160045260246000fdfea26469706673582212202063c62e2035461ad76f7dcd5a470b52310136d976684acbc53e8ed9bcaf5af464736f6c63430008040033",
  "immutableReferences": {},
  "source": "// SPDX-License-Identifier: MIT\npragma solidity >=0.4.22 <0.9.0;\n\ncontract CrowdFunding{\n    mapping(address => uint) public contributors;\n    address public admin;\n\n    uint public noOfContributors;\n    uint public minimumContribution;\n    uint public deadline; //timestamp\n    uint public goal;\n    uint public raisedAmount;\n\n\n    event Contribuite(address _address , uint amount);\n    event StartContract( uint _deadline, uint _goal);\n    event GetRefunds(address _address, uint _amount);\n    event GoalChanged(uint oldGoal, uint newGoal);\n    event startedNewCrowdFund(uint newMinimumContribution, uint newGoal, uint newDeadLine);\n\n    constructor(uint _goal, uint _deadline){\n        goal = _goal;\n        deadline = block.timestamp + _deadline;\n        minimumContribution = 100; //100wei\n        admin = msg.sender;\n        emit StartContract( deadline,  goal);\n    }\n\n    modifier OnlyOwner(){\n        require(msg.sender == admin, \"Only admin can call this function\");\n        _;\n    }\n\n    receive() payable external{\n        contribuite();\n    }\n\n    //Function to  contribuite\n    function contribuite() public payable {\n        require(block.timestamp < deadline, \"deadline has passed\");\n        require(msg.value >= minimumContribution, \"contribution is too low\");\n\n        if(contributors[msg.sender] == 0){\n            noOfContributors++;\n        }\n\n        contributors[msg.sender] += msg.value;\n        raisedAmount += msg.value;\n        emit Contribuite(msg.sender, msg.value);\n    }\n\n    function getContractBalance() external view returns(uint){\n        return address(this).balance;\n    }\n\n    function getRefunds() public {\n        require(block.timestamp > deadline && raisedAmount < goal, \"The deadline is not over yet.\");\n        require(contributors[msg.sender] > 0, \"There were no contributors\");\n\n        address payable recipient = payable(msg.sender);\n        uint value = contributors[msg.sender];\n        recipient.transfer(value);\n        //Reset value the contribuitor\n        contributors[msg.sender] = 0;\n        noOfContributors = noOfContributors - 1 ;\n        raisedAmount = raisedAmount - value;\n        emit GetRefunds(recipient, value);\n\n    }\n\n    function changeGoal(uint newGoal) external OnlyOwner {\n        require(newGoal != goal, \"Please enter a different value\");\n        goal = newGoal;\n        emit GoalChanged(goal, newGoal);\n    }   \n\n    function StateDeadline()  public view returns(string memory){\n        if(block.timestamp > deadline){\n            return \"CrowdFunding Finished!\";\n        }else{\n            return \"CrowdFunding is Running\";\n        }\n    }\n\n    /**@dev this function starts a new round */\n    function StartNewCrowFunding(uint newMinimumContribution, uint newGoal, uint newDeadline) external OnlyOwner{\n        require(block.timestamp > deadline, \"Crowfunding is running\");\n        require(noOfContributors == 0, \"There are still people who have not withdrawn their funds.\");\n        minimumContribution = newMinimumContribution;\n        goal = newGoal;\n        deadline = block.timestamp + newDeadline;\n        emit startedNewCrowdFund(newMinimumContribution, newGoal, newDeadline);\n\n    }\n    \n}",
  "sourcePath": "/Users/nlwsoft/Desktop/CrowdFunding/contracts/CrowdFunding.sol",
  "compiler": {
    "name": "solc",
    "version": "0.8.4+commit.c7e474f2.Emscripten.clang"
  },
  "schemaVersion": "3.4.3",
  "updatedAt": "2022-01-18T04:41:31.927Z",
  "networkType": "ethereum",
  "devdoc": {
    "kind": "dev",
    "methods": {
      "StartNewCrowFunding(uint256,uint256,uint256)": {
        "details": "this function starts a new round "
      }
    },
    "version": 1
  },
  "userdoc": {
    "kind": "user",
    "methods": {},
    "version": 1
  }
}